:060000000A128A11122809
:10000800FE00030E83120313CA000408CB000A087B
:10001800CC007F08CD000A128A116B2E0A128A11B1
:10002800152883136A30FD000730FE008230FF0078
:10003800603084000A128A1173270A128A114E301E
:10004800840060300A128A118C270A128A118301EF
:100058000A128A11B82E8312031323088039A800C4
:100068002808AD002308A8002807A9002908B3001C
:10007800A21F3F2840284128331433080319452874
:1000880046285528330A031D4A284B285328003090
:10009800A3000030A2000030A1000030A000A21789
:1000A8005D280030A3000030A2000030A10000301D
:1000B800A00027088039A8002808AD062708A8004E
:1000C8002807A9002908B200A61F6B286C286D28EC
:1000D800321432080319712872288128320A031D44
:1000E800762877287F280030A7000030A600003047
:1000F800A5000030A400A61789280030A70000300A
:10010800A6000030A5000030A400320803198D288D
:100118008E2893283308031D922893289C280030A2
:10012800A3000030A2000030A1000030A0008F2BF7
:100138002008A8002808F00026080A128A11262795
:100148000A128A11710883120313B9007008B800E3
:100158003808A800A901AA01AB012B08B1002A0898
:10016800B0002908AF002808AE003908A800A90186
:10017800AA01AB012B08B7002A08B6002908B50068
:100188002808B4002108A8002808F00025080A1249
:100198008A1126270A128A11710883120313B900DB
:1001A8007008B8003808A800A901AA01AB012808FE
:1001B800AE07290803110318013E0319E428AF0705
:1001C8002A0803110318013E0319EB28B0072B086E
:1001D80003110318013E0319F228B1073908A800D2
:1001E800A901AA01AB012808B407290803110318BB
:1001F800013E03190029B5072A0803110318013E17
:1002080003190729B6072B0803110318013E031920
:100218000E29B7072208A8002808F00024080A12A7
:100228008A1126270A128A11710883120313B9004A
:100238007008B8003808A800A901AA01AB0128086D
:10024800AE07290803110318013E03192C29AF072B
:100258002A0803110318013E03193329B0072B0894
:1002680003110318013E03193A29B1073908A800F8
:10027800A901AA01AB012808B4072908031103182A
:10028800013E03194829B5072A0803110318013E3E
:1002980003194F29B6072B0803110318013E031948
:1002A8005629B7070830A8000310AE0DAF0DB00DE2
:1002B800B10DA80B58292108A8002808F000240827
:1002C8000A128A1126270A128A1171088312031347
:1002D800B9007008B8003808A8003908A900AA01B0
:1002E800AB012808AE07290803110318013E0319BA
:1002F8007E29AF072A0803110318013E031985292F
:10030800B0072B0803110318013E03198C29B10704
:100318002008A8002808F00025080A128A112627B4
:100328000A128A11710883120313B9007008B80001
:100338003808A8003908A900AA01AB012808AE07A7
:10034800290803110318013E0319AB29AF072A082E
:1003580003110318013E0319B229B0072B08031132
:100368000318013E0319B929B1070830A800031082
:10037800AE0DAF0DB00DB10DA80BBB292008A8001C
:100388002808F00024080A128A1126270A128A115E
:10039800710883120313B9007008B8003808A80060
:1003A8003908A900AA01AB012808AE0729080311DA
:1003B8000318013E0319E129AF072A08031103189E
:1003C800013E0319E829B0072B0803110318013E61
:1003D8000319EF29B1072108A8002808F00026080A
:1003E8000A128A1126270A128A1171088312031326
:1003F800B9007008B8003808A8003908A900AA018F
:10040800AB012808B407290803110318013E031992
:100418000E2AB5072A0803110318013E0319152AE5
:10042800B6072B0803110318013E03191C2AB70746
:100438002208A8002808F00025080A128A11262791
:100448000A128A11710883120313B9007008B800E0
:100458003808A8003908A900AA01AB012808B40780
:10046800290803110318013E03193B2AB5072A0876
:1004780003110318013E0319422AB6072B0803117A
:100488000318013E0319492AB7072208A8002808BB
:10049800F00026080A128A1126270A128A11710802
:1004A80083120313B9007008B8003808A800390887
:1004B800A900AA01AB0108300310A80DA90DAA0DC7
:1004C800AB0DFF3E031D602A2808B4072908031155
:1004D8000318013E0319712AB5072A0803110318E6
:1004E800013E0319782AB6072B0803110318013EA9
:1004F80003197F2AB7072E08A8002F08A90030087B
:10050800AA003108AB0018300310AB0CAA0CA90CD8
:10051800A80CFF3E031D882A2808B40729080311E0
:100528000318013E0319992AB5072A08031103186D
:10053800013E0319A02AB6072B0803110318013E30
:100548000319A72AB7070830A8000310AE0DAF0D8E
:10055800B00DB10DA80BA92A33083207A800A901CC
:10056800A90D2808823EB80029080318013EFF3E5D
:10057800B900DB2A0130A8000310B40DB50DB60D83
:10058800B70DA80BC02AB11FCA2ACB2ACC2A34140B
:100598000130A8000310AE0DAF0DB00DB10DA80BC2
:1005A800CE2AFF30B8070318B90AFF30B907B61FBB
:1005B800DE2ADF2ABE2AB201B11FE32AE42A002B71
:1005C800FF302E05A800FF302F05A900FF303005A9
:1005D800AA007F303105AB002B082A04290428041F
:1005E8000319F72AF82AFB2AB201B20A002B341C95
:1005F800FE2AFF2A002BF82A32080319042B052BA0
:10060800362B0130B407003003180130B50700302D
:1006180003180130B607003003180130B707371C3C
:10062800162B172B362B3408A8003508A9003608D6
:10063800AA003708AB000130AC002B0DAB0CAA0C9C
:10064800A90CA80CAC0B212B2B08B7002A08B60064
:100658002908B5002808B4000130B8070318B90AFA
:100668000030B9073908803AFF0080307F02031D47
:100678003F2BFF303802031C422B432B4E2B7F307D
:1006880083120313B7008030B6000030B500003085
:10069800B400832B831203133908803AFF0080309B
:1006A8007F02031D592B0130380203185C2B5D2B88
:1006B800692B003083120313B7000030B6000030F6
:1006C800B5000030B400AD01832B83120313380842
:1006D800A8002808B300FF30B405FF30B5057F3007
:1006E800B6050030B705331C7A2B7B2B7C2BB6174D
:1006F8003308A8000310280CA9002908B7002D0802
:10070800A8002808B7043708A3003608A20035084F
:10071800A1003408A0000800F80078080319952BF8
:10072800962BAA2BF31F992B9A2BAA2B7009FA0048
:100738007109FB007209FC007309FD00FA0A03192C
:10074800FB0A0319FC0A0319FD0AB22B7308FD0002
:100758007208FC007108FB007008FA007308720444
:1007680071047004031DB92BBA2BC32B0030F3009E
:100778000030F2000030F1000030F000492C9630D3
:10078800F4007408F900D52B0130F4007408F90757
:1007980001300310FD0CFC0CFB0CFA0CFF3E031D92
:1007A800CD2BFE307D05031DDA2BDB2BC82BF72B59
:1007B8000130F4007408F9070130FA070030031813
:1007C8000130FB07003003180130FC070030031824
:1007D8000130FD0701300310FD0CFC0CFB0CFA0C7A
:1007E800FF3E031DEF2BFF307D05031DFC2BFD2B6A
:1007F800DC2B092C0130F9020130F4000310FA0D4A
:10080800FB0DFC0DFD0DF40B022CFC1B0C2C0D2C10
:10081800132C023079020318122C132CFE2B791892
:10082800162C172C1F2CFF30FA05FF30FB057F30E4
:10083800FC05FF30FD050310F90C7908F400F501FB
:10084800F601F70118300310F40DF50DF60DF70D4C
:10085800FF3E031D272C7408FA047508FB0476086C
:10086800FC047708FD04780803193B2C3C2C412C28
:10087800F31F3F2C402C412CFD177D08F3007C080A
:10088800F2007B08F1007A08F000080083120313D5
:100898001E08C500C601C701C8014808F30047087B
:1008A800F2004608F1004508F00001300A128A11EA
:1008B80090230A128A11730883120313A70072087F
:1008C800A6007108A5007008A4003F30A300FA3004
:1008D800A200E130A1004830A0000A128A112F209E
:1008E8000A128A11831203132308BD002208BC00D0
:1008F8002108BB002008BA000A128A11E0240A1253
:100908008A11831203133B08DF003A08DE005F08F0
:10091800CF005E08CE006430F0000030F1004F08D0
:10092800F3004E08F2000A128A115C250A128A1195
:10093800710883120313D1007008D0006430F000EE
:100948000030F1004F08F3004E08F2000A128A1135
:10095800C3250A128A11710883120313CF00700885
:10096800CE000A30F0000030F1004F08F3004E08C6
:10097800F2000A128A115C250A128A117108831280
:100988000313D3007008D2000A30F0000030F100E1
:100998004F08F3004E08F2000A128A11C3250A1202
:1009A8008A11710883120313CF007008CE004F0814
:1009B800D5004E08D40008000310831203133C0D21
:1009C8003D0DBE003E08C4004408031DEC2CED2C70
:1009D800F62C0030BD000030BC000030BB000030F9
:1009E800BA005B2D3A08BE003B08BF003C08C000B7
:1009F8003D08C1001F300310C10CC00CBF0CBE0C59
:100A0800FF3E031DFF2C3E08C2004208C300BC176E
:100A1800FF30BA05FF30BB05FF30BC050030BD050F
:100A28009630C402C41F192D1A2D342D4408803A5B
:100A3800973E0318202D212D222DED2C0130031077
:100A4800BD0CBC0CBB0CBA0CFF3E031D232D0130A2
:100A5800BE003E08C407031D322D332D222D4B2D19
:100A680020304402031C392D3A2D462DED2C01303F
:100A7800BE000310BA0DBB0DBC0DBD0DBE0B3D2D48
:100A88000130C4024408031D4A2D4B2D3B2D430859
:100A980003194F2D502D5B2DBA09BB09BC09BD099F
:100AA800BA0A0319BB0A0319BC0A0319BD0A0800CC
:100AB800F601F11F602D612D682DF009F109F00A8A
:100AC8000319F10AF601F60AF31F6B2D6C2D752D2B
:100AD800F209F309F20A0319F30A0130F400740861
:100AE800F606F701F8017008710403197C2D7D2DB5
:100AF800B42DF501F50A8B2D01300310F00DF10D21
:100B0800FF3E031D812D0130F4007408F507F11F25
:100B18008E2D8F2D802D01300310F70DF80DFF3E1F
:100B2800031D902D71087302031D9C2D700872021D
:100B3800031C9F2DA02DA72D7008F2027108031C1D
:100B4800F303F302771401300310F10CF00CFF3EAD
:100B5800031DA82D0130F502031DB32DB42D8F2DD3
:100B680076080319B82DB92DBE2DF709F809F70A2B
:100B78000319F80A7808F1007708F0000800F60170
:100B8800F31FC72DC82DCF2DF209F309F20A031957
:100B9800F30AF601F60AF11FD22DD32DD82DF0094C
:100BA800F109F00A0319F10A700871040319DD2D1F
:100BB800DE2D0D2EF501F50AEC2D01300310F00D98
:100BC800F10DFF3E031DE22D0130F4007408F50716
:100BD800F11FEF2DF02DE12D71087302031DF62D85
:100BE80070087202031CF92DFA2D002E7008F2020B
:100BF8007108031CF303F30201300310F10CF00C2D
:100C0800FF3E031D012E0130F502031D0C2E0D2E93
:100C1800F02D76080319112E122E172EF209F3095A
:100C2800F20A0319F30A7308F1007208F0000800C9
:100C380083160317890103308800033083160313D2
:100C4800850083120313850183160313870183121A
:100C58000313870183160313880183120313880182
:100C6800831603138901831203138901831603135F
:100C78000F088F3960388F000F14831203131F0871
:100C88003F3940389F00831603131F129F16C33045
:100C9800831203139F05831603139F1383120313F1
:100CA8001F140C3083160313A000A00B592E00004C
:100CB800831203130C13831603130C170B178B17CC
:100CC80081120112811101118114011408000C1FF5
:100CD8006E2E6F2E8C2E1F0CC900490C0F39003A4E
:100CE800031D772E782E7B2E1E088700892E1F0C59
:100CF800C900490C0F39013A031D832E842E892E11
:100D08000A128A11F4260A128A11831203130C1389
:100D18000B1D8F2E902EAD2E5D08803AFF0080307F
:100D28007F02031D992E04305C0203189C2E9D2E11
:100D3800A62E013083120313DC070318DD0A0030E6
:100D4800DD07AA2E83120313DC01DD01F9308100CF
:100D58000B114D08FF004C088A004B0884004A0E0E
:100D68008300FE0E7E0E09000A128A111C260A1242
:100D78008A11831203139F18C22EC32EBD2E1F0C77
:100D880083160313A100210C0F39003A031DCD2E41
:100D9800CE2ED52E831203131F08C33904389F00A3
:100DA800E62E831203131F0C83160313A100210CD4
:100DB8000F39013A031DE12EE22EE62EC3308312CD
:100DC80003139F050C3083160313A100A10BEA2E11
:100DD8000000831203139F14BD2E0A128A111228D1
:100DE8000A128A114A240A128A110A128A114D27F4
:100DF8000A128A11102F8901252F89015A088800A3
:100E08000914252F8901580888008914252F89017C
:100E1800560888000915252F831203135D08003A28
:100E28000319172F252F5C08003A0319FF2E013AE2
:100E38000319012F033A0319062F013A03190B2F3F
:100E4800252F0800F800F401F5017008F200F301FD
:100E58007208F6007308F700781C332F342F3A2FE6
:100E68007608F4070318F50A7708F5070130031028
:100E7800F60DF70DFF3E031D3B2F0310F80C780805
:100E8800031D472F482F302F7508F1007408F00014
:100E98000800831203135008603E8400831300087F
:100EA800F000F1017008DA007108DB005208603EBA
:100EB80084000008F000F1017008D8007108D9001A
:100EC8005408603E84000008F000F1017008D60064
:100ED8007108D70008007E088A007F0882000A127D
:100EE8008A116F270A128A118000840A04087D0675
:100EF80003190034FF0A0319FE0A732F3F3406341E
:100F08005B344F3466346D347D3407347F346F344A
:100F180064008001840A04060319003404068D2F36
:08400000FF3FFF3FFF3FFF3FC0
:04400E00D420FF3F7C
:00000001FF
